{
  "contractName": "optimized_healthCare",
  "abi": [
    {
      "inputs": [],
      "payable": false,
      "stateMutability": "nonpayable",
      "type": "constructor"
    },
    {
      "anonymous": false,
      "inputs": [
        {
          "indexed": false,
          "internalType": "address",
          "name": "_doctor",
          "type": "address"
        },
        {
          "indexed": false,
          "internalType": "string",
          "name": "message",
          "type": "string"
        }
      ],
      "name": "doctorSignUp",
      "type": "event"
    },
    {
      "anonymous": false,
      "inputs": [
        {
          "indexed": false,
          "internalType": "address",
          "name": "patient_address",
          "type": "address"
        },
        {
          "indexed": false,
          "internalType": "string",
          "name": "message",
          "type": "string"
        },
        {
          "indexed": false,
          "internalType": "string",
          "name": "_doctor",
          "type": "string"
        },
        {
          "indexed": false,
          "internalType": "address",
          "name": "doctor_address",
          "type": "address"
        }
      ],
      "name": "grantDoctorAccess",
      "type": "event"
    },
    {
      "anonymous": false,
      "inputs": [
        {
          "indexed": false,
          "internalType": "address",
          "name": "_patient",
          "type": "address"
        },
        {
          "indexed": false,
          "internalType": "string",
          "name": "message",
          "type": "string"
        }
      ],
      "name": "patientSignUp",
      "type": "event"
    },
    {
      "anonymous": false,
      "inputs": [
        {
          "indexed": false,
          "internalType": "address",
          "name": "patient_address",
          "type": "address"
        },
        {
          "indexed": false,
          "internalType": "string",
          "name": "message",
          "type": "string"
        },
        {
          "indexed": false,
          "internalType": "string",
          "name": "_doctor",
          "type": "string"
        },
        {
          "indexed": false,
          "internalType": "address",
          "name": "doctor_address",
          "type": "address"
        }
      ],
      "name": "revokeDoctorAccess",
      "type": "event"
    },
    {
      "constant": false,
      "inputs": [
        {
          "internalType": "address",
          "name": "_id",
          "type": "address"
        },
        {
          "internalType": "string",
          "name": "_name",
          "type": "string"
        },
        {
          "internalType": "string",
          "name": "_location",
          "type": "string"
        }
      ],
      "name": "hospitalSignUp",
      "outputs": [],
      "payable": false,
      "stateMutability": "nonpayable",
      "type": "function"
    },
    {
      "constant": false,
      "inputs": [
        {
          "internalType": "string",
          "name": "_name",
          "type": "string"
        },
        {
          "internalType": "string",
          "name": "_contact",
          "type": "string"
        },
        {
          "internalType": "string",
          "name": "_gender",
          "type": "string"
        }
      ],
      "name": "signupPatient",
      "outputs": [],
      "payable": false,
      "stateMutability": "nonpayable",
      "type": "function"
    },
    {
      "constant": false,
      "inputs": [
        {
          "internalType": "address",
          "name": "_id",
          "type": "address"
        },
        {
          "internalType": "string",
          "name": "_name",
          "type": "string"
        },
        {
          "internalType": "string",
          "name": "_contact",
          "type": "string"
        },
        {
          "internalType": "string",
          "name": "_specialization",
          "type": "string"
        }
      ],
      "name": "signupDoctor",
      "outputs": [],
      "payable": false,
      "stateMutability": "nonpayable",
      "type": "function"
    },
    {
      "constant": false,
      "inputs": [
        {
          "internalType": "address",
          "name": "doctor_id",
          "type": "address"
        }
      ],
      "name": "grantAccessToDoctor",
      "outputs": [],
      "payable": false,
      "stateMutability": "nonpayable",
      "type": "function"
    },
    {
      "constant": false,
      "inputs": [
        {
          "internalType": "address",
          "name": "doctor_id",
          "type": "address"
        }
      ],
      "name": "revokeAccessFromDoctor",
      "outputs": [],
      "payable": false,
      "stateMutability": "nonpayable",
      "type": "function"
    },
    {
      "constant": false,
      "inputs": [
        {
          "internalType": "string",
          "name": "_file_name",
          "type": "string"
        },
        {
          "internalType": "string",
          "name": "_file_type",
          "type": "string"
        },
        {
          "internalType": "string",
          "name": "_file_hash",
          "type": "string"
        }
      ],
      "name": "addUserFiles",
      "outputs": [],
      "payable": false,
      "stateMutability": "nonpayable",
      "type": "function"
    },
    {
      "constant": true,
      "inputs": [
        {
          "internalType": "address",
          "name": "sender",
          "type": "address"
        }
      ],
      "name": "getUserFiles",
      "outputs": [
        {
          "components": [
            {
              "internalType": "string",
              "name": "file_name",
              "type": "string"
            },
            {
              "internalType": "string",
              "name": "file_type",
              "type": "string"
            },
            {
              "internalType": "string",
              "name": "file_hash",
              "type": "string"
            }
          ],
          "internalType": "struct optimized_healthCare.files[]",
          "name": "",
          "type": "tuple[]"
        }
      ],
      "payable": false,
      "stateMutability": "view",
      "type": "function"
    },
    {
      "constant": true,
      "inputs": [],
      "name": "getPatientInfo",
      "outputs": [
        {
          "internalType": "string",
          "name": "",
          "type": "string"
        },
        {
          "internalType": "address",
          "name": "",
          "type": "address"
        },
        {
          "internalType": "string",
          "name": "",
          "type": "string"
        },
        {
          "internalType": "bytes32[]",
          "name": "",
          "type": "bytes32[]"
        },
        {
          "internalType": "address[]",
          "name": "",
          "type": "address[]"
        },
        {
          "internalType": "string",
          "name": "",
          "type": "string"
        },
        {
          "internalType": "string",
          "name": "",
          "type": "string"
        }
      ],
      "payable": false,
      "stateMutability": "view",
      "type": "function"
    },
    {
      "constant": true,
      "inputs": [],
      "name": "getDoctorInfo",
      "outputs": [
        {
          "internalType": "string",
          "name": "",
          "type": "string"
        },
        {
          "internalType": "address",
          "name": "",
          "type": "address"
        },
        {
          "internalType": "address[]",
          "name": "",
          "type": "address[]"
        },
        {
          "internalType": "string",
          "name": "",
          "type": "string"
        },
        {
          "internalType": "string",
          "name": "",
          "type": "string"
        }
      ],
      "payable": false,
      "stateMutability": "view",
      "type": "function"
    },
    {
      "constant": true,
      "inputs": [
        {
          "internalType": "uint64",
          "name": "_adhaar_number",
          "type": "uint64"
        }
      ],
      "name": "checkDoctorInfo",
      "outputs": [
        {
          "internalType": "bool",
          "name": "",
          "type": "bool"
        },
        {
          "internalType": "address",
          "name": "",
          "type": "address"
        }
      ],
      "payable": false,
      "stateMutability": "view",
      "type": "function"
    },
    {
      "constant": true,
      "inputs": [
        {
          "internalType": "uint64",
          "name": "_adhaar_number",
          "type": "uint64"
        }
      ],
      "name": "checkPatientInfo",
      "outputs": [
        {
          "internalType": "bool",
          "name": "",
          "type": "bool"
        },
        {
          "internalType": "address",
          "name": "",
          "type": "address"
        }
      ],
      "payable": false,
      "stateMutability": "view",
      "type": "function"
    },
    {
      "constant": true,
      "inputs": [
        {
          "internalType": "address",
          "name": "pat",
          "type": "address"
        }
      ],
      "name": "getPatientInfoForDoctor",
      "outputs": [
        {
          "internalType": "string",
          "name": "",
          "type": "string"
        },
        {
          "internalType": "string",
          "name": "",
          "type": "string"
        },
        {
          "internalType": "address",
          "name": "",
          "type": "address"
        },
        {
          "components": [
            {
              "internalType": "string",
              "name": "file_name",
              "type": "string"
            },
            {
              "internalType": "string",
              "name": "file_type",
              "type": "string"
            },
            {
              "internalType": "string",
              "name": "file_hash",
              "type": "string"
            }
          ],
          "internalType": "struct optimized_healthCare.files[]",
          "name": "",
          "type": "tuple[]"
        }
      ],
      "payable": false,
      "stateMutability": "view",
      "type": "function"
    },
    {
      "constant": true,
      "inputs": [],
      "name": "getHospitalInfo",
      "outputs": [
        {
          "internalType": "address",
          "name": "",
          "type": "address"
        },
        {
          "internalType": "string",
          "name": "",
          "type": "string"
        },
        {
          "internalType": "string",
          "name": "",
          "type": "string"
        }
      ],
      "payable": false,
      "stateMutability": "view",
      "type": "function"
    },
    {
      "constant": true,
      "inputs": [],
      "name": "getOwnerInfo",
      "outputs": [
        {
          "internalType": "address",
          "name": "",
          "type": "address"
        }
      ],
      "payable": false,
      "stateMutability": "view",
      "type": "function"
    },
    {
      "constant": false,
      "inputs": [
        {
          "internalType": "address",
          "name": "_user",
          "type": "address"
        },
        {
          "internalType": "address",
          "name": "_patient",
          "type": "address"
        }
      ],
      "name": "hospitalGrantAccess",
      "outputs": [],
      "payable": false,
      "stateMutability": "nonpayable",
      "type": "function"
    },
    {
      "constant": false,
      "inputs": [
        {
          "internalType": "address",
          "name": "_id",
          "type": "address"
        },
        {
          "internalType": "string",
          "name": "_name",
          "type": "string"
        },
        {
          "internalType": "string",
          "name": "_location",
          "type": "string"
        }
      ],
      "name": "addHospital",
      "outputs": [],
      "payable": false,
      "stateMutability": "nonpayable",
      "type": "function"
    },
    {
      "constant": false,
      "inputs": [
        {
          "internalType": "address",
          "name": "_doc",
          "type": "address"
        },
        {
          "internalType": "string",
          "name": "_name",
          "type": "string"
        },
        {
          "internalType": "string",
          "name": "_DOB",
          "type": "string"
        },
        {
          "internalType": "uint24",
          "name": "_pincode",
          "type": "uint24"
        },
        {
          "internalType": "uint64",
          "name": "_adhaar_number",
          "type": "uint64"
        }
      ],
      "name": "addDoctorAdhaarInfo",
      "outputs": [],
      "payable": false,
      "stateMutability": "nonpayable",
      "type": "function"
    },
    {
      "constant": false,
      "inputs": [
        {
          "internalType": "address",
          "name": "_pat",
          "type": "address"
        },
        {
          "internalType": "string",
          "name": "_name",
          "type": "string"
        },
        {
          "internalType": "string",
          "name": "_DOB",
          "type": "string"
        },
        {
          "internalType": "uint24",
          "name": "_pincode",
          "type": "uint24"
        },
        {
          "internalType": "uint64",
          "name": "_adhaar_number",
          "type": "uint64"
        }
      ],
      "name": "addPatientAdhaarInfo",
      "outputs": [],
      "payable": false,
      "stateMutability": "nonpayable",
      "type": "function"
    }
  ],
  "bytecode": "0x608060405234801561001057600080fd5b5060008054600160a060020a03191633179055615413806100326000396000f3fe608060405234801561001057600080fd5b5060043610610153576000357c010000000000000000000000000000000000000000000000000000000090048063828566fc116100cf578063b609af261161009e578063c981893011610083578063c9818930146102ad578063facf8323146102c0578063fe59cc1a146102d557610153565b8063b609af2614610283578063c4fa7adb1461029657610153565b8063828566fc14610223578063ab9cff1814610236578063ae2ed42f14610249578063b380f5c61461026a57610153565b80632cecb523116101265780633b0e67ec1161010b5780633b0e67ec146101ea578063405b8af0146101fd578063629e559d1461021057610153565b80632cecb523146101bc578063326df664146101cf57610153565b80631c8e251c146101585780631fc379221461016d5780631fd4be9b146101965780632ae48e40146101a9575b600080fd5b61016b610166366004614a1a565b6102f8565b005b61018061017b366004614a1a565b610a54565b60405161018d919061513c565b60405180910390f35b61016b6101a4366004614ba0565b610c8c565b61016b6101b7366004614c45565b610f4e565b61016b6101ca366004614a40565b610fe5565b6101d7611485565b60405161018d97969594939291906151cd565b61016b6101f8366004614a7a565b611be9565b61016b61020b366004614af7565b611e2a565b61016b61021e366004614a1a565b612208565b61016b610231366004614a7a565b6128c4565b61016b610244366004614c45565b612a51565b61025c610257366004614c7d565b612e3d565b60405161018d92919061514d565b61027261337c565b60405161018d959493929190615168565b61016b610291366004614ba0565b6138da565b61029e613b56565b60405161018d939291906150e9565b61025c6102bb366004614c7d565b613cd2565b6102c8614121565b60405161018d919061505b565b6102e86102e3366004614a1a565b61414a565b60405161018d949392919061525c565b3361030161471c565b600160a060020a03821660009081526002602081815260409283902083518154610120601f6000196001841615610100908102919091019093169690960495860185900490940282018401909552938401838152909284928491908401828280156103ad5780601f10610382576101008083540402835291602001916103ad565b820191906000526020600020905b81548152906001019060200180831161039057829003601f168201915b50505050508152602001600182018054600181600116156101000203166002900480601f01602080910402602001604051908101604052809291908181526020018280546001816001161561010002031660029004801561044f5780601f106104245761010080835404028352916020019161044f565b820191906000526020600020905b81548152906001019060200180831161043257829003601f168201915b505050918352505060028281015467ffffffffffffffff811660208085019190915268010000000000000000909104600160a060020a031660408085019190915260038501805482516101006001831615026000190190911694909404601f8101849004840285018401909252818452606090940193918301828280156105175780601f106104ec57610100808354040283529160200191610517565b820191906000526020600020905b8154815290600101906020018083116104fa57829003601f168201915b505050918352505060048201805460408051602060026001851615610100026000190190941693909304601f81018490048402820184019092528181529382019392918301828280156105ab5780601f10610580576101008083540402835291602001916105ab565b820191906000526020600020905b81548152906001019060200180831161058e57829003601f168201915b505050505081526020016005820180548060200260200160405190810160405280929190818152602001828054801561060357602002820191906000526020600020905b8154815260200190600101908083116105ef575b505050505081526020016006820180548060200260200160405190810160405280929190818152602001828054801561066557602002820191906000526020600020905b8154600160a060020a03168152600190910190602001808311610647575b50505050508152505090506000600160a060020a03168160600151600160a060020a03161161069357600080fd5b8261069c614774565b600160a060020a0382166000908152600160208181526040928390208351815460029481161561010002600019011693909304601f8101839004909202830160e090810190945260c0830182815292939092849290918491908401828280156107465780601f1061071b57610100808354040283529160200191610746565b820191906000526020600020905b81548152906001019060200180831161072957829003601f168201915b5050509183525050600182810154600160a060020a0381166020808501919091527401000000000000000000000000000000000000000090910467ffffffffffffffff166040808501919091526002808601805483516101009682161596909602600019011691909104601f81018490048402850184019092528184526060909401939183018282801561081b5780601f106107f05761010080835404028352916020019161081b565b820191906000526020600020905b8154815290600101906020018083116107fe57829003601f168201915b505050918352505060038201805460408051602060026001851615610100026000190190941693909304601f81018490048402820184019092528181529382019392918301828280156108af5780601f10610884576101008083540402835291602001916108af565b820191906000526020600020905b81548152906001019060200180831161089257829003601f168201915b505050505081526020016004820180548060200260200160405190810160405280929190818152602001828054801561091157602002820191906000526020600020905b8154600160a060020a031681526001909101906020018083116108f3575b50505050508152505090506000600160a060020a03168160200151600160a060020a03161161093f57600080fd5b336000818152600260209081526040808320600160a060020a038a16808552600180855283862096865260038552838620918652935292205491929161ffff161061098957600080fd5b600682018054600180820180845560009384526020808520909301805473ffffffffffffffffffffffffffffffffffffffff19908116600160a060020a038e1690811790925533808752600386526040808820938852928652828720805461ffff191661ffff8616179055600488018054958601815587529490952090920180549094168317909355517fe239c4e608cb32aaf8ef7214f811e28ea27c91cad9f719be74579c18fc2e983191610a429185908c90615088565b60405180910390a15050505050505050565b600160a060020a0381166000908152600560209081526040808320805482518185028101850190935280835260609492939192909184015b82821015610c815760008481526020908190206040805160038602909201805460026001821615610100026000190190911604601f8101859004909402830160809081019092526060830184815292939092849290918491840182828015610b355780601f10610b0a57610100808354040283529160200191610b35565b820191906000526020600020905b815481529060010190602001808311610b1857829003601f168201915b50505050508152602001600182018054600181600116156101000203166002900480601f016020809104026020016040519081016040528092919081815260200182805460018160011615610100020316600290048015610bd75780601f10610bac57610100808354040283529160200191610bd7565b820191906000526020600020905b815481529060010190602001808311610bba57829003601f168201915b5050509183525050600282810180546040805160206001841615610100026000190190931694909404601f81018390048302850183019091528084529381019390830182828015610c695780601f10610c3e57610100808354040283529160200191610c69565b820191906000526020600020905b815481529060010190602001808311610c4c57829003601f168201915b50505050508152505081526020019060010190610a8c565b505050509050919050565b610c946147bd565b600160a060020a03868116600090815260086020908152604091829020825160a081018452815494851681527401000000000000000000000000000000000000000090940467ffffffffffffffff1684830152600180820180548551600261010094831615949094026000190190911692909204601f81018590048502830185018652808352929486019391929091830182828015610d745780601f10610d4957610100808354040283529160200191610d74565b820191906000526020600020905b815481529060010190602001808311610d5757829003601f168201915b5050509183525050600282810180546040805160206001841615610100026000190190931694909404601f81018390048302850183019091528084529381019390830182828015610e065780601f10610ddb57610100808354040283529160200191610e06565b820191906000526020600020905b815481529060010190602001808311610de957829003601f168201915b50505091835250506003919091015462ffffff1660209182015281015190915067ffffffffffffffff1615610e3a57600080fd5b6040805160a081018252600160a060020a0388811680835267ffffffffffffffff86811660208086019182528587018c8152606087018c905262ffffff8b1660808801526000948552600882529690932085518154925173ffffffffffffffffffffffffffffffffffffffff199093169516949094177fffffffff0000000000000000ffffffffffffffffffffffffffffffffffffffff167401000000000000000000000000000000000000000091909216021782559251805192939192610f089260018501920190614804565b5060608201518051610f24916002840191602090910190614804565b50608091909101516003909101805462ffffff191662ffffff909216919091179055505050505050565b3360009081526005602090815260408083208151606081018352878152808401879052918201859052805460018101808355918552938390208251805192959394600390940290910192610fa792849290910190614804565b506020828101518051610fc09260018501920190614804565b5060408201518051610fdc916002840191602090910190614804565b50505050505050565b80610fee61471c565b600160a060020a03821660009081526002602081815260409283902083518154610120601f60001960018416156101009081029190910190931696909604958601859004909402820184019095529384018381529092849284919084018282801561109a5780601f1061106f5761010080835404028352916020019161109a565b820191906000526020600020905b81548152906001019060200180831161107d57829003601f168201915b50505050508152602001600182018054600181600116156101000203166002900480601f01602080910402602001604051908101604052809291908181526020018280546001816001161561010002031660029004801561113c5780601f106111115761010080835404028352916020019161113c565b820191906000526020600020905b81548152906001019060200180831161111f57829003601f168201915b505050918352505060028281015467ffffffffffffffff811660208085019190915268010000000000000000909104600160a060020a031660408085019190915260038501805482516101006001831615026000190190911694909404601f8101849004840285018401909252818452606090940193918301828280156112045780601f106111d957610100808354040283529160200191611204565b820191906000526020600020905b8154815290600101906020018083116111e757829003601f168201915b505050918352505060048201805460408051602060026001851615610100026000190190941693909304601f81018490048402820184019092528181529382019392918301828280156112985780601f1061126d57610100808354040283529160200191611298565b820191906000526020600020905b81548152906001019060200180831161127b57829003601f168201915b50505050508152602001600582018054806020026020016040519081016040528092919081815260200182805480156112f057602002820191906000526020600020905b8154815260200190600101908083116112dc575b505050505081526020016006820180548060200260200160405190810160405280929190818152602001828054801561135257602002820191906000526020600020905b8154600160a060020a03168152600190910190602001808311611334575b50505050508152505090506000600160a060020a03168160600151600160a060020a03161161138057600080fd5b600160a060020a038085166000908152600160208181526040808420888616855260029092529092209082015491929091161561147d57600160a060020a038086166000908152600360209081526040808320938a1683529290522054600161ffff909116106113ef57600080fd5b6006810180546001818101808455600093845260208085209093018054600160a060020a03808d1673ffffffffffffffffffffffffffffffffffffffff1992831681179093558b16808752600386526040808820938852928652918620805461ffff90941661ffff199094169390931790925560048701805493840181558552929093200180549092161790555b505050505050565b6060600060608060608060603361149a61471c565b600160a060020a03821660009081526002602081815260409283902083518154610120601f6000196001841615610100908102919091019093169690960495860185900490940282018401909552938401838152909284928491908401828280156115465780601f1061151b57610100808354040283529160200191611546565b820191906000526020600020905b81548152906001019060200180831161152957829003601f168201915b50505050508152602001600182018054600181600116156101000203166002900480601f0160208091040260200160405190810160405280929190818152602001828054600181600116156101000203166002900480156115e85780601f106115bd576101008083540402835291602001916115e8565b820191906000526020600020905b8154815290600101906020018083116115cb57829003601f168201915b505050918352505060028281015467ffffffffffffffff811660208085019190915268010000000000000000909104600160a060020a031660408085019190915260038501805482516101006001831615026000190190911694909404601f8101849004840285018401909252818452606090940193918301828280156116b05780601f10611685576101008083540402835291602001916116b0565b820191906000526020600020905b81548152906001019060200180831161169357829003601f168201915b505050918352505060048201805460408051602060026001851615610100026000190190941693909304601f81018490048402820184019092528181529382019392918301828280156117445780601f1061171957610100808354040283529160200191611744565b820191906000526020600020905b81548152906001019060200180831161172757829003601f168201915b505050505081526020016005820180548060200260200160405190810160405280929190818152602001828054801561179c57602002820191906000526020600020905b815481526020019060010190808311611788575b50505050508152602001600682018054806020026020016040519081016040528092919081815260200182805480156117fe57602002820191906000526020600020905b8154600160a060020a031681526001909101906020018083116117e0575b50505050508152505090506000600160a060020a03168160600151600160a060020a03161161182c57600080fd5b61183461471c565b3360009081526002602081815260409283902083518154610120601f6000196001841615610100908102919091019093169690960495860185900490940282018401909552938401838152909284928491908401828280156118d75780601f106118ac576101008083540402835291602001916118d7565b820191906000526020600020905b8154815290600101906020018083116118ba57829003601f168201915b50505050508152602001600182018054600181600116156101000203166002900480601f0160208091040260200160405190810160405280929190818152602001828054600181600116156101000203166002900480156119795780601f1061194e57610100808354040283529160200191611979565b820191906000526020600020905b81548152906001019060200180831161195c57829003601f168201915b505050918352505060028281015467ffffffffffffffff811660208085019190915268010000000000000000909104600160a060020a031660408085019190915260038501805482516101006001831615026000190190911694909404601f810184900484028501840190925281845260609094019391830182828015611a415780601f10611a1657610100808354040283529160200191611a41565b820191906000526020600020905b815481529060010190602001808311611a2457829003601f168201915b505050918352505060048201805460408051602060026001851615610100026000190190941693909304601f8101849004840282018401909252818152938201939291830182828015611ad55780601f10611aaa57610100808354040283529160200191611ad5565b820191906000526020600020905b815481529060010190602001808311611ab857829003601f168201915b5050505050815260200160058201805480602002602001604051908101604052809291908181526020018280548015611b2d57602002820191906000526020600020905b815481526020019060010190808311611b19575b5050505050815260200160068201805480602002602001604051908101604052809291908181526020018280548015611b8f57602002820191906000526020600020905b8154600160a060020a03168152600190910190602001808311611b71575b50505050508152505090508060000151816060015182602001518360c001518460e0015185608001518660a00151869650849450839350829250819150809050995099509950995099509950995050505090919293949596565b600054600160a060020a03163314611c0057600080fd5b611c08614882565b600160a060020a03848116600090815260066020908152604091829020825160608101845281549094168452600180820180548551600261010094831615949094026000190190911692909204601f8101859004850283018501909552848252919385840193919291830182828015611cc25780601f10611c9757610100808354040283529160200191611cc2565b820191906000526020600020905b815481529060010190602001808311611ca557829003601f168201915b5050509183525050600282810180546040805160206001841615610100026000190190931694909404601f81018390048302850183019091528084529381019390830182828015611d545780601f10611d2957610100808354040283529160200191611d54565b820191906000526020600020905b815481529060010190602001808311611d3757829003601f168201915b505050919092525050815191925050600160a060020a031615611d7657600080fd5b604051611d8290615050565b604051809103902083604051602001611d9b9190615044565b604051602081830303815290604052805190602001201415611dbc57600080fd5b60408051606081018252600160a060020a038681168083526020808401888152848601889052600092835260068252949091208351815473ffffffffffffffffffffffffffffffffffffffff191693169290921782559251805192939192610fc09260018501920190614804565b600160a060020a0384166000908152600160205260409020611e4a6147bd565b600160a060020a03868116600090815260086020908152604091829020825160a081018452815494851681527401000000000000000000000000000000000000000090940467ffffffffffffffff1684830152600180820180548551600261010094831615949094026000190190911692909204601f81018590048502830185018652808352929486019391929091830182828015611f2a5780601f10611eff57610100808354040283529160200191611f2a565b820191906000526020600020905b815481529060010190602001808311611f0d57829003601f168201915b5050509183525050600282810180546040805160206001841615610100026000190190931694909404601f81018390048302850183019091528084529381019390830182828015611fbc5780601f10611f9157610100808354040283529160200191611fbc565b820191906000526020600020905b815481529060010190602001808311611f9f57829003601f168201915b50505091835250506003919091015462ffffff16602090910152604051909150611fe590615050565b604051809103902085604051602001611ffe9190615044565b60405160208183030381529060405280519060200120141561201f57600080fd5b6001820154600160a060020a03161561203757600080fd5b6000816020015167ffffffffffffffff161161205257600080fd5b6040518060c0016040528086815260200187600160a060020a03168152602001826020015167ffffffffffffffff16815260200185815260200184815260200160006040519080825280602002602001820160405280156120bd578160200160208202803883390190505b509052600160a060020a03871660009081526001602090815260409091208251805191926120f092849290910190614804565b50602082810151600183018054604086015167ffffffffffffffff1674010000000000000000000000000000000000000000027fffffffff0000000000000000ffffffffffffffffffffffffffffffffffffffff600160a060020a0390941673ffffffffffffffffffffffffffffffffffffffff1990921691909117929092169190911790556060830151805161218d9260028501920190614804565b50608082015180516121a9916003840191602090910190614804565b5060a082015180516121c59160048401916020909101906148ac565b509050507fdd0aa1d3beead09f31cc046643e0d63829e7c7f43e532c2523d978bc9c3bfb33866040516121f8919061511d565b60405180910390a1505050505050565b3361221161471c565b600160a060020a03821660009081526002602081815260409283902083518154610120601f6000196001841615610100908102919091019093169690960495860185900490940282018401909552938401838152909284928491908401828280156122bd5780601f10612292576101008083540402835291602001916122bd565b820191906000526020600020905b8154815290600101906020018083116122a057829003601f168201915b50505050508152602001600182018054600181600116156101000203166002900480601f01602080910402602001604051908101604052809291908181526020018280546001816001161561010002031660029004801561235f5780601f106123345761010080835404028352916020019161235f565b820191906000526020600020905b81548152906001019060200180831161234257829003601f168201915b505050918352505060028281015467ffffffffffffffff811660208085019190915268010000000000000000909104600160a060020a031660408085019190915260038501805482516101006001831615026000190190911694909404601f8101849004840285018401909252818452606090940193918301828280156124275780601f106123fc57610100808354040283529160200191612427565b820191906000526020600020905b81548152906001019060200180831161240a57829003601f168201915b505050918352505060048201805460408051602060026001851615610100026000190190941693909304601f81018490048402820184019092528181529382019392918301828280156124bb5780601f10612490576101008083540402835291602001916124bb565b820191906000526020600020905b81548152906001019060200180831161249e57829003601f168201915b505050505081526020016005820180548060200260200160405190810160405280929190818152602001828054801561251357602002820191906000526020600020905b8154815260200190600101908083116124ff575b505050505081526020016006820180548060200260200160405190810160405280929190818152602001828054801561257557602002820191906000526020600020905b8154600160a060020a03168152600190910190602001808311612557575b50505050508152505090506000600160a060020a03168160600151600160a060020a0316116125a357600080fd5b336000908152600360209081526040808320600160a060020a038716845290915290205461ffff166125d457600080fd5b336000818152600360209081526040808320600160a060020a038816808552908352818420805461ffff19169055938352600282528083209383526001909152812060068301549091805b8261ffff168161ffff1610156126775787600160a060020a0316856006018261ffff168154811061264c57fe5b600091825260209091200154600160a060020a0316141561266f57809150612677565b60010161261f565b505b6001820361ffff168161ffff16101561270c57836006018160010161ffff16815481106126a257fe5b600091825260209091200154600685018054600160a060020a039092169161ffff84169081106126ce57fe5b6000918252602090912001805473ffffffffffffffffffffffffffffffffffffffff1916600160a060020a0392909216919091179055600101612679565b8360060180548061271957fe5b6000828152602081208201600019908101805473ffffffffffffffffffffffffffffffffffffffff19169055909101909155600484015492509050805b8261ffff168161ffff1610156127ae5733600160a060020a0316846004018261ffff168154811061278357fe5b600091825260209091200154600160a060020a031614156127a6578091506127ae565b600101612756565b505b6001820361ffff168161ffff16101561284357826004018160010161ffff16815481106127d957fe5b600091825260209091200154600484018054600160a060020a039092169161ffff841690811061280557fe5b6000918252602090912001805473ffffffffffffffffffffffffffffffffffffffff1916600160a060020a03929092169190911790556001016127b0565b8260040180548061285057fe5b6000828152602090208101600019908101805473ffffffffffffffffffffffffffffffffffffffff191690550190556040517f212bcbf580385b870fe82b11fdd99334c16d187419727ccfb2b89aea2f872785906128b390339086908b906150ca565b60405180910390a150505050505050565b600054600160a060020a031633146128db57600080fd5b6128e3614882565b600160a060020a03848116600090815260066020908152604091829020825160608101845281549094168452600180820180548551600261010094831615949094026000190190911692909204601f810185900485028301850190955284825291938584019391929183018282801561299d5780601f106129725761010080835404028352916020019161299d565b820191906000526020600020905b81548152906001019060200180831161298057829003601f168201915b5050509183525050600282810180546040805160206001841615610100026000190190931694909404601f81018390048302850183019091528084529381019390830182828015612a2f5780601f10612a0457610100808354040283529160200191612a2f565b820191906000526020600020905b815481529060010190602001808311612a1257829003601f168201915b505050919092525050815191925050600160a060020a031615611dbc57600080fd5b336000908152600260205260409020612a686147bd565b33600090815260076020908152604091829020825160a0810184528154600160a060020a038116825274010000000000000000000000000000000000000000900467ffffffffffffffff1681840152600180830180548651600261010094831615949094026000190190911692909204601f81018690048602830186018752808352929593949386019391929091830182828015612b475780601f10612b1c57610100808354040283529160200191612b47565b820191906000526020600020905b815481529060010190602001808311612b2a57829003601f168201915b5050509183525050600282810180546040805160206001841615610100026000190190931694909404601f81018390048302850183019091528084529381019390830182828015612bd95780601f10612bae57610100808354040283529160200191612bd9565b820191906000526020600020905b815481529060010190602001808311612bbc57829003601f168201915b50505091835250506003919091015462ffffff166020909101526002830154909150680100000000000000009004600160a060020a031615612c1a57600080fd5b6000816020015167ffffffffffffffff1611612c3557600080fd5b60405180610100016040528086815260200182606001518152602001826020015167ffffffffffffffff16815260200133600160a060020a031681526020018481526020018581526020016000604051908082528060200260200182016040528015612cab578160200160208202803883390190505b5081526020016000604051908082528060200260200182016040528015612cdc578160200160208202803883390190505b509052336000908152600260209081526040909120825180519192612d0692849290910190614804565b506020828101518051612d1f9260018501920190614804565b5060408201516002820180546060850151600160a060020a031668010000000000000000027fffffffff0000000000000000000000000000000000000000ffffffffffffffff67ffffffffffffffff90941667ffffffffffffffff19909216919091179290921691909117905560808201518051612da7916003840191602090910190614804565b5060a08201518051612dc3916004840191602090910190614804565b5060c08201518051612ddf91600584019160209091019061491a565b5060e08201518051612dfb9160068401916020909101906148ac565b509050507ff0c358f29581a43889abe78660babebd0ac62878d0ed89571af6c2168bbcda0c33604051612e2e9190615069565b60405180910390a15050505050565b600080612e4861471c565b3360009081526002602081815260409283902083518154610120601f600019600184161561010090810291909101909316969096049586018590049094028201840190955293840183815290928492849190840182828015612eeb5780601f10612ec057610100808354040283529160200191612eeb565b820191906000526020600020905b815481529060010190602001808311612ece57829003601f168201915b50505050508152602001600182018054600181600116156101000203166002900480601f016020809104026020016040519081016040528092919081815260200182805460018160011615610100020316600290048015612f8d5780601f10612f6257610100808354040283529160200191612f8d565b820191906000526020600020905b815481529060010190602001808311612f7057829003601f168201915b505050918352505060028281015467ffffffffffffffff811660208085019190915268010000000000000000909104600160a060020a031660408085019190915260038501805482516101006001831615026000190190911694909404601f8101849004840285018401909252818452606090940193918301828280156130555780601f1061302a57610100808354040283529160200191613055565b820191906000526020600020905b81548152906001019060200180831161303857829003601f168201915b505050918352505060048201805460408051602060026001851615610100026000190190941693909304601f81018490048402820184019092528181529382019392918301828280156130e95780601f106130be576101008083540402835291602001916130e9565b820191906000526020600020905b8154815290600101906020018083116130cc57829003601f168201915b505050505081526020016005820180548060200260200160405190810160405280929190818152602001828054801561314157602002820191906000526020600020905b81548152602001906001019080831161312d575b50505050508152602001600682018054806020026020016040519081016040528092919081815260200182805480156131a357602002820191906000526020600020905b8154600160a060020a03168152600190910190602001808311613185575b50505050508152505090506131b66147bd565b33600090815260076020908152604091829020825160a0810184528154600160a060020a038116825274010000000000000000000000000000000000000000900467ffffffffffffffff1681840152600180830180548651600261010094831615949094026000190190911692909204601f810186900486028301860187528083529295939493860193919290918301828280156132955780601f1061326a57610100808354040283529160200191613295565b820191906000526020600020905b81548152906001019060200180831161327857829003601f168201915b5050509183525050600282810180546040805160206001841615610100026000190190931694909404601f810183900483028501830190915280845293810193908301828280156133275780601f106132fc57610100808354040283529160200191613327565b820191906000526020600020905b81548152906001019060200180831161330a57829003601f168201915b50505091835250506003919091015462ffffff1660209182015281015190915067ffffffffffffffff8681169116141561336b575060600151600192509050613377565b50606001516000925090505b915091565b6060600060608060603361338e614774565b600160a060020a0382166000908152600160208181526040928390208351815460029481161561010002600019011693909304601f8101839004909202830160e090810190945260c0830182815292939092849290918491908401828280156134385780601f1061340d57610100808354040283529160200191613438565b820191906000526020600020905b81548152906001019060200180831161341b57829003601f168201915b5050509183525050600182810154600160a060020a0381166020808501919091527401000000000000000000000000000000000000000090910467ffffffffffffffff166040808501919091526002808601805483516101009682161596909602600019011691909104601f81018490048402850184019092528184526060909401939183018282801561350d5780601f106134e25761010080835404028352916020019161350d565b820191906000526020600020905b8154815290600101906020018083116134f057829003601f168201915b505050918352505060038201805460408051602060026001851615610100026000190190941693909304601f81018490048402820184019092528181529382019392918301828280156135a15780601f10613576576101008083540402835291602001916135a1565b820191906000526020600020905b81548152906001019060200180831161358457829003601f168201915b505050505081526020016004820180548060200260200160405190810160405280929190818152602001828054801561360357602002820191906000526020600020905b8154600160a060020a031681526001909101906020018083116135e5575b50505050508152505090506000600160a060020a03168160200151600160a060020a03161161363157600080fd5b613639614774565b336000908152600160208181526040928390208351815460029481161561010002600019011693909304601f8101839004909202830160e090810190945260c0830182815292939092849290918491908401828280156136da5780601f106136af576101008083540402835291602001916136da565b820191906000526020600020905b8154815290600101906020018083116136bd57829003601f168201915b5050509183525050600182810154600160a060020a0381166020808501919091527401000000000000000000000000000000000000000090910467ffffffffffffffff166040808501919091526002808601805483516101009682161596909602600019011691909104601f8101849004840285018401909252818452606090940193918301828280156137af5780601f10613784576101008083540402835291602001916137af565b820191906000526020600020905b81548152906001019060200180831161379257829003601f168201915b505050918352505060038201805460408051602060026001851615610100026000190190941693909304601f81018490048402820184019092528181529382019392918301828280156138435780601f1061381857610100808354040283529160200191613843565b820191906000526020600020905b81548152906001019060200180831161382657829003601f168201915b50505050508152602001600482018054806020026020016040519081016040528092919081815260200182805480156138a557602002820191906000526020600020905b8154600160a060020a03168152600190910190602001808311613887575b5050509190925250508151602083015160a08401516060850151608090950151929d919c509a50929850965090945050505050565b6138e26147bd565b600160a060020a03868116600090815260076020908152604091829020825160a081018452815494851681527401000000000000000000000000000000000000000090940467ffffffffffffffff1684830152600180820180548551600261010094831615949094026000190190911692909204601f810185900485028301850186528083529294860193919290918301828280156139c25780601f10613997576101008083540402835291602001916139c2565b820191906000526020600020905b8154815290600101906020018083116139a557829003601f168201915b5050509183525050600282810180546040805160206001841615610100026000190190931694909404601f81018390048302850183019091528084529381019390830182828015613a545780601f10613a2957610100808354040283529160200191613a54565b820191906000526020600020905b815481529060010190602001808311613a3757829003601f168201915b50505091835250506003919091015462ffffff1660209182015281015190915067ffffffffffffffff1615613a8857600080fd5b6040805160a081018252600160a060020a0388811680835267ffffffffffffffff86811660208086019182528587018c8152606087018c905262ffffff8b1660808801526000948552600782529690932085518154925173ffffffffffffffffffffffffffffffffffffffff199093169516949094177fffffffff0000000000000000ffffffffffffffffffffffffffffffffffffffff167401000000000000000000000000000000000000000091909216021782559251805192939192610f089260018501920190614804565b6000606080613b63614882565b3360009081526006602090815260409182902082516060810184528154600160a060020a03168152600180830180548651600261010094831615949094026000190190911692909204601f8101869004860283018601909652858252919492938581019391929190830182828015613c1c5780601f10613bf157610100808354040283529160200191613c1c565b820191906000526020600020905b815481529060010190602001808311613bff57829003601f168201915b5050509183525050600282810180546040805160206001841615610100026000190190931694909404601f81018390048302850183019091528084529381019390830182828015613cae5780601f10613c8357610100808354040283529160200191613cae565b820191906000526020600020905b815481529060010190602001808311613c9157829003601f168201915b50505091909252505081516020830151604090930151909792965094509092505050565b600080613cdd614774565b336000908152600160208181526040928390208351815460029481161561010002600019011693909304601f8101839004909202830160e090810190945260c083018281529293909284929091849190840182828015613d7e5780601f10613d5357610100808354040283529160200191613d7e565b820191906000526020600020905b815481529060010190602001808311613d6157829003601f168201915b5050509183525050600182810154600160a060020a0381166020808501919091527401000000000000000000000000000000000000000090910467ffffffffffffffff166040808501919091526002808601805483516101009682161596909602600019011691909104601f810184900484028501840190925281845260609094019391830182828015613e535780601f10613e2857610100808354040283529160200191613e53565b820191906000526020600020905b815481529060010190602001808311613e3657829003601f168201915b505050918352505060038201805460408051602060026001851615610100026000190190941693909304601f8101849004840282018401909252818152938201939291830182828015613ee75780601f10613ebc57610100808354040283529160200191613ee7565b820191906000526020600020905b815481529060010190602001808311613eca57829003601f168201915b5050505050815260200160048201805480602002602001604051908101604052809291908181526020018280548015613f4957602002820191906000526020600020905b8154600160a060020a03168152600190910190602001808311613f2b575b5050505050815250509050613f5c6147bd565b33600090815260086020908152604091829020825160a0810184528154600160a060020a038116825274010000000000000000000000000000000000000000900467ffffffffffffffff1681840152600180830180548651600261010094831615949094026000190190911692909204601f8101869004860283018601875280835292959394938601939192909183018282801561403b5780601f106140105761010080835404028352916020019161403b565b820191906000526020600020905b81548152906001019060200180831161401e57829003601f168201915b5050509183525050600282810180546040805160206001841615610100026000190190931694909404601f810183900483028501830190915280845293810193908301828280156140cd5780601f106140a2576101008083540402835291602001916140cd565b820191906000526020600020905b8154815290600101906020018083116140b057829003601f168201915b50505091835250506003919091015462ffffff1660209182015281015190915067ffffffffffffffff86811691161415614111575060200151600192509050613377565b5060200151600092509050613377565b60008054600160a060020a0316331461413957600080fd5b50600054600160a060020a03165b90565b6060806000606061415961471c565b600160a060020a03861660009081526002602081815260409283902083518154610120601f6000196001841615610100908102919091019093169690960495860185900490940282018401909552938401838152909284928491908401828280156142055780601f106141da57610100808354040283529160200191614205565b820191906000526020600020905b8154815290600101906020018083116141e857829003601f168201915b50505050508152602001600182018054600181600116156101000203166002900480601f0160208091040260200160405190810160405280929190818152602001828054600181600116156101000203166002900480156142a75780601f1061427c576101008083540402835291602001916142a7565b820191906000526020600020905b81548152906001019060200180831161428a57829003601f168201915b505050918352505060028281015467ffffffffffffffff811660208085019190915268010000000000000000909104600160a060020a031660408085019190915260038501805482516101006001831615026000190190911694909404601f81018490048402850184019092528184526060909401939183018282801561436f5780601f106143445761010080835404028352916020019161436f565b820191906000526020600020905b81548152906001019060200180831161435257829003601f168201915b505050918352505060048201805460408051602060026001851615610100026000190190941693909304601f81018490048402820184019092528181529382019392918301828280156144035780601f106143d857610100808354040283529160200191614403565b820191906000526020600020905b8154815290600101906020018083116143e657829003601f168201915b505050505081526020016005820180548060200260200160405190810160405280929190818152602001828054801561445b57602002820191906000526020600020905b815481526020019060010190808311614447575b50505050508152602001600682018054806020026020016040519081016040528092919081815260200182805480156144bd57602002820191906000526020600020905b8154600160a060020a0316815260019091019060200180831161449f575b50505091909252505081516020808401516060850151600160a060020a038c166000908152600584526040808220805482518188028101880190935280835298995095979396509194939192849290919084015b828210156147065760008481526020908190206040805160038602909201805460026001821615610100026000190190911604601f81018590049094028301608090810190925260608301848152929390928492909184918401828280156145ba5780601f1061458f576101008083540402835291602001916145ba565b820191906000526020600020905b81548152906001019060200180831161459d57829003601f168201915b50505050508152602001600182018054600181600116156101000203166002900480601f01602080910402602001604051908101604052809291908181526020018280546001816001161561010002031660029004801561465c5780601f106146315761010080835404028352916020019161465c565b820191906000526020600020905b81548152906001019060200180831161463f57829003601f168201915b5050509183525050600282810180546040805160206001841615610100026000190190931694909404601f810183900483028501830190915280845293810193908301828280156146ee5780601f106146c3576101008083540402835291602001916146ee565b820191906000526020600020905b8154815290600101906020018083116146d157829003601f168201915b50505050508152505081526020019060010190614511565b5050505090509450945094509450509193509193565b6040518061010001604052806060815260200160608152602001600067ffffffffffffffff1681526020016000600160a060020a03168152602001606081526020016060815260200160608152602001606081525090565b6040518060c00160405280606081526020016000600160a060020a03168152602001600067ffffffffffffffff1681526020016060815260200160608152602001606081525090565b6040518060a001604052806000600160a060020a03168152602001600067ffffffffffffffff1681526020016060815260200160608152602001600062ffffff1681525090565b828054600181600116156101000203166002900490600052602060002090601f016020900481019282601f1061484557805160ff1916838001178555614872565b82800160010185558215614872579182015b82811115614872578251825591602001919060010190614857565b5061487e929150614954565b5090565b60405180606001604052806000600160a060020a0316815260200160608152602001606081525090565b82805482825590600052602060002090810192821561490e579160200282015b8281111561490e578251825473ffffffffffffffffffffffffffffffffffffffff1916600160a060020a039091161782556020909201916001909101906148cc565b5061487e92915061496e565b8280548282559060005260206000209081019282156148725791602002820182811115614872578251825591602001919060010190614857565b61414791905b8082111561487e576000815560010161495a565b61414791905b8082111561487e57805473ffffffffffffffffffffffffffffffffffffffff19168155600101614974565b80356149aa816153a7565b92915050565b600082601f8301126149c157600080fd5b81356149d46149cf826152d3565b6152ac565b915080825260208301602083018583830111156149f057600080fd5b6149fb838284615361565b50505092915050565b80356149aa816153be565b80356149aa816153c7565b600060208284031215614a2c57600080fd5b6000614a38848461499f565b949350505050565b60008060408385031215614a5357600080fd5b6000614a5f858561499f565b9250506020614a708582860161499f565b9150509250929050565b600080600060608486031215614a8f57600080fd5b6000614a9b868661499f565b935050602084013567ffffffffffffffff811115614ab857600080fd5b614ac4868287016149b0565b925050604084013567ffffffffffffffff811115614ae157600080fd5b614aed868287016149b0565b9150509250925092565b60008060008060808587031215614b0d57600080fd5b6000614b19878761499f565b945050602085013567ffffffffffffffff811115614b3657600080fd5b614b42878288016149b0565b935050604085013567ffffffffffffffff811115614b5f57600080fd5b614b6b878288016149b0565b925050606085013567ffffffffffffffff811115614b8857600080fd5b614b94878288016149b0565b91505092959194509250565b600080600080600060a08688031215614bb857600080fd5b6000614bc4888861499f565b955050602086013567ffffffffffffffff811115614be157600080fd5b614bed888289016149b0565b945050604086013567ffffffffffffffff811115614c0a57600080fd5b614c16888289016149b0565b9350506060614c2788828901614a04565b9250506080614c3888828901614a0f565b9150509295509295909350565b600080600060608486031215614c5a57600080fd5b833567ffffffffffffffff811115614c7157600080fd5b614a9b868287016149b0565b600060208284031215614c8f57600080fd5b6000614a388484614a0f565b6000614ca78383614cdd565b505060200190565b6000614ca78383614e04565b6000614cc78383614fef565b9392505050565b614cd781615350565b82525050565b614cd78161531f565b6000614cf18261530d565b614cfb8185615311565b9350614d06836152fb565b8060005b83811015614d34578151614d1e8882614c9b565b9750614d29836152fb565b925050600101614d0a565b509495945050505050565b6000614d4a8261530d565b614d548185615311565b9350614d5f836152fb565b8060005b83811015614d34578151614d778882614caf565b9750614d82836152fb565b925050600101614d63565b6000614d988261530d565b614da28185615311565b935083602082028501614db4856152fb565b8060005b85811015614dee5784840389528151614dd18582614cbb565b9450614ddc836152fb565b60209a909a0199925050600101614db8565b5091979650505050505050565b614cd78161532a565b614cd781614147565b6000614e188261530d565b614e228185615311565b9350614e3281856020860161536d565b614e3b8161539d565b9093019392505050565b6000614e508261530d565b614e5a818561531a565b9350614e6a81856020860161536d565b9290920192915050565b600081546001811660008114614e915760018114614eb757614ef6565b607f6002830416614ea28187615311565b60ff1984168152955050602085019250614ef6565b60028204614ec58187615311565b9550614ed085615301565b60005b82811015614eef57815488820152600190910190602001614ed3565b8701945050505b505092915050565b6000614f0b601483615311565b7f5265676973746572656420617320446f63746f72000000000000000000000000815260200192915050565b6000614f44601583615311565b7f526567697374657265642061732050617469656e740000000000000000000000815260200192915050565b6000614f7d601883615311565b7f4772616e7465642061636365737320746f20646f63746f720000000000000000815260200192915050565b6000614fb6601883615311565b7f5265766f6b656420616363657373206f6620646f63746f720000000000000000815260200192915050565b60006149aa60008361531a565b80516060808452600091908401906150078282614e0d565b915050602083015184820360208601526150218282614e0d565b9150506040830151848203604086015261503b8282614e0d565b95945050505050565b6000614cc78284614e45565b60006149aa82614fe2565b602081016149aa8284614cdd565b604081016150778284614cce565b8181036020830152614cc781614f37565b608081016150968286614cce565b81810360208301526150a781614f70565b905081810360408301526150bb8185614e74565b9050614a386060830184614cdd565b608081016150d88286614cce565b81810360208301526150a781614fa9565b606081016150f78286614cdd565b81810360208301526151098185614e0d565b9050818103604083015261503b8184614e0d565b6040810161512b8284614cdd565b8181036020830152614cc781614efe565b60208082528101614cc78184614d8d565b6040810161515b8285614dfb565b614cc76020830184614cdd565b60a080825281016151798188614e0d565b90506151886020830187614cdd565b818103604083015261519a8186614ce6565b905081810360608301526151ae8185614e0d565b905081810360808301526151c28184614e0d565b979650505050505050565b60e080825281016151de818a614e0d565b90506151ed6020830189614cdd565b81810360408301526151ff8188614e0d565b905081810360608301526152138187614d3f565b905081810360808301526152278186614ce6565b905081810360a083015261523b8185614e0d565b905081810360c083015261524f8184614e0d565b9998505050505050505050565b6080808252810161526d8187614e0d565b905081810360208301526152818186614e0d565b90506152906040830185614cdd565b81810360608301526152a28184614d8d565b9695505050505050565b60405181810167ffffffffffffffff811182821017156152cb57600080fd5b604052919050565b600067ffffffffffffffff8211156152ea57600080fd5b506020601f91909101601f19160190565b60200190565b60009081526020902090565b5190565b90815260200190565b919050565b60006149aa8261532f565b151590565b600160a060020a031690565b62ffffff1690565b67ffffffffffffffff1690565b60006149aa8260006149aa8261531f565b82818337506000910152565b60005b83811015615388578181015183820152602001615370565b83811115615397576000848401525b50505050565b601f01601f191690565b6153b08161531f565b81146153bb57600080fd5b50565b6153b08161533b565b6153b08161534356fea365627a7a7231582064ffe822af977b99c448f0f4e509bcbd9b90105f027197ea435fc4798ff8266b6c6578706572696d656e74616cf564736f6c63430005110040",
  "source": "pragma solidity >=0.4.21 <0.7.0;\npragma experimental ABIEncoderV2;\n\n\ncontract optimized_healthCare {\n\n  address private owner;\n  mapping (address => doctor) private doctors;\n  \n  mapping (address => patient) private patients; //mapping patients to their addresses\n  mapping (address => mapping (address => uint16)) private patientToDoctor; //patients and list of doctors allowed access to\n  mapping (address => mapping (bytes32 => uint16)) private patientToFile; //files mapped to patients\n  mapping (address => files[]) private patientFiles;\n  mapping (address => hospital) private hospitals;\n  // mapping (address => doctorAddedFiles[]) private doctorAddedPatientFiles;\n  // mapping (address => doctorOfferedConsultation[]) private doctorOfferedConsultationList;\n  mapping (address => adhaar) patient_adhaar_info;\n  mapping (address => adhaar) doctor_adhaar_info;\n\n\n  struct adhaar{\n    address id;\n    uint64 adhaar_number;\n    string name;\n    string DOB;\n    uint24 pincode;\n  }\n\n  //structure of patient file\n  struct files{\n      string file_name;\n      string file_type;\n      string file_hash;\n  }\n  \n  //structure of hospital\n  struct hospital{\n    address id;  \n    string name;\n    string location;\n  }\n  \n  //structure of patient info\n  struct patient {\n    string name;\n    string DOB;\n    uint64 adhaar_number;\n    address id;\n    string gender;\n    string contact_info;\n\n    bytes32[] files;// hashes of file that belong to this user for display purpose\n    address[] doctor_list;\n  }\n  \n \n  //structure of doctor info\n  struct doctor {\n      string name;\n      address id;\n      uint64 adhaar_number;\n      string contact;\n      string specialization;\n      address[] patient_list;\n  }\n\n  //setting the owner\n  constructor() public {\n    owner = msg.sender;\n  }\n  \n  //verify doctor \n  modifier checkDoctor(address id) {\n    doctor memory d = doctors[id];\n    require(d.id > address(0x0));//check if doctor exist\n    _;\n  }\n  \n  //verify patient\n  modifier checkPatient(address id) {\n    patient memory p = patients[id];\n    require(p.id > address(0x0));//check if patient exist\n    _;\n  }\n\n \n  //owner verification modifier\n  modifier onlyOwner() {\n    require(msg.sender == owner);\n    _;\n  }\n   \n\n\n  function hospitalSignUp(address _id, string memory _name, string memory _location ) public onlyOwner() {\n    \n    hospital memory h= hospitals[_id];\n    require(!(h.id > address(0x0)));\n    require(keccak256(abi.encodePacked(_name)) != keccak256(\"\"));\n    hospitals[_id] = hospital({id:_id, name:_name, location: _location});\n  }\n\n  //Event to emit when new patient registers\n  event patientSignUp( address _patient, string message);\n\n  function signupPatient(string memory _name, string memory _contact, string memory _gender) public {\n\n    //search for patient on blockchain by address \n    patient storage p = patients[msg.sender];\n    adhaar memory a = patient_adhaar_info[msg.sender];\n    //Check if the patient already exists by address\n    require(!(p.id > address(0x0)));\n    //Add patient to blockchain\n    require(a.adhaar_number > 0);\n\n    patients[msg.sender] = patient({name:_name, DOB: a.DOB, id:msg.sender, adhaar_number: a.adhaar_number, gender:_gender, contact_info:_contact, files:new bytes32[](0), doctor_list:new address[](0)});\n    \n\n    emit patientSignUp( msg.sender, \"Registered as Patient\");\n  }\n  \n\n  //Event to emit when new doctor registers\n  event doctorSignUp(address _doctor, string message);\n\n  function signupDoctor(address _id, string memory _name, string memory _contact, string memory _specialization) public {\n\n      //search for doctor on blockchain\n      doctor storage d = doctors[_id];\n      adhaar memory a = doctor_adhaar_info[_id];\n      //check name of doctor\n      require(keccak256(abi.encodePacked(_name)) != keccak256(\"\"));\n      //check if doctor already exists\n      require(!(d.id > address(0x0)));\n\n      require(a.adhaar_number > 0);\n      //Add the doctor to blockchain\n      doctors[_id] = doctor({name:_name, id:_id, contact:_contact, adhaar_number: a.adhaar_number, specialization: _specialization, patient_list:new address[](0)});\n     \n      emit doctorSignUp(_id, \"Registered as Doctor\");\n  }\n\n\n  //Event to emit when patient grants access to doctor\n  event grantDoctorAccess( address patient_address, string message, string _doctor, address doctor_address);\n  \n  function grantAccessToDoctor(address doctor_id) public checkPatient(msg.sender) checkDoctor(doctor_id) {\n      \n      patient storage p = patients[msg.sender];\n      doctor storage d = doctors[doctor_id];\n      require(patientToDoctor[msg.sender][doctor_id] < 1);// this means doctor already been access\n      \n      uint16 pos = (uint16)(p.doctor_list.push(doctor_id));// new length of array\n      \n      patientToDoctor[msg.sender][doctor_id] = pos;\n      d.patient_list.push(msg.sender);\n\n   \n      \n      emit grantDoctorAccess( msg.sender , \"Granted access to doctor\", d.name , doctor_id);\n  }\n\n  //Event to emit when patient revokes a doctor's access\n  event revokeDoctorAccess(address patient_address, string message, string _doctor, address doctor_address);\n\n  function revokeAccessFromDoctor(address doctor_id) public checkPatient(msg.sender){\n    require(patientToDoctor[msg.sender][doctor_id] > 0);\n    patientToDoctor[msg.sender][doctor_id] = 0;\n\n\n    patient storage p = patients[msg.sender];\n    doctor storage d = doctors[doctor_id];\n\n    uint16 pdlength= (uint16)(p.doctor_list.length);\n    uint16 pos=0;\n\n    for (uint16 i = 0; i < pdlength; i++) {\n      if(p.doctor_list[i] == doctor_id)\n      {\n        pos=i;\n        break;\n      }\n    }\n\n    for(;pos<pdlength-1;pos++)\n    {\n      p.doctor_list[pos]= p.doctor_list[pos+1];\n    }\n\n    p.doctor_list.pop();\n\n    pdlength= (uint16)(d.patient_list.length);\n    pos=0;\n\n    for (uint16 i = 0; i < pdlength; i++) {\n      if(d.patient_list[i] == msg.sender)\n      {\n        pos=i;\n        break;\n      }\n    }\n\n    for(;pos<pdlength-1;pos++)\n    {\n      d.patient_list[pos]= d.patient_list[pos+1];\n    }\n\n    d.patient_list.pop();\n\n    emit revokeDoctorAccess(msg.sender, \"Revoked access of doctor\", d.name, doctor_id);\n  }\n  \n\n\n  function addUserFiles(string memory _file_name, string memory _file_type,string memory _file_hash) public{\n\n    patientFiles[msg.sender].push(files({file_name:_file_name, file_type:_file_type,file_hash:_file_hash}));\n\n  }\n\n\n  function getUserFiles(address sender)public view returns(files[] memory){\n      return patientFiles[sender];\n  }\n\n\n\n  function getPatientInfo() public view checkPatient(msg.sender) returns(string memory,address, string memory, bytes32[] memory , address[] memory, string memory, string memory) {\n      \n    patient memory p = patients[msg.sender];\n    return (p.name, p.id, p.DOB, p.files, p.doctor_list, p.gender, p.contact_info );\n  }\n\n\n\n  function getDoctorInfo() public view checkDoctor(msg.sender) returns(string memory, address, address[] memory, string memory, string memory) {\n      doctor memory d = doctors[msg.sender];\n\n      return (d.name, d.id, d.patient_list, d.contact, d.specialization);\n  }\n  \n  function checkDoctorInfo(uint64 _adhaar_number) public view returns(bool, address) {\n    \n    doctor memory d = doctors[msg.sender];\n    adhaar memory a = doctor_adhaar_info[msg.sender];\n    if (a.adhaar_number == _adhaar_number){\n      return (true, d.id);\n    }\n\n    else \n      return (false, d.id);\n\n  }\n\n  function checkPatientInfo(uint64 _adhaar_number) public view returns(bool, address) {\n    patient memory p = patients[msg.sender];\n    adhaar memory a = patient_adhaar_info[msg.sender];\n    if (a.adhaar_number == _adhaar_number){\n      return (true,p.id);\n    }\n\n    else \n      return (false,p.id);\n\n  }\n  \n  \n  function getPatientInfoForDoctor(address pat) public view returns(string memory, string memory, address, files[] memory){\n      patient memory p = patients[pat];\n      return (p.name, p.DOB, p.id, patientFiles[pat]);\n    }\n\n  function getHospitalInfo() public view returns(address, string memory, string memory)\n  {\n    hospital memory h = hospitals[msg.sender];\n    return (h.id, h.name, h.location);\n  }\n\n  function getOwnerInfo() public view  onlyOwner() returns(address)\n  {\n    return (owner);\n  }\n\n  function hospitalGrantAccess(address _user, address _patient) public checkPatient(_patient)\n  {\n    doctor storage d = doctors[_user];\n    patient storage p = patients[_patient];\n    if(d.id > address(0x0))\n    {\n      require(patientToDoctor[_patient][_user] < 1);// this means doctor already been access\n      \n      uint16 pos = (uint16)(p.doctor_list.push(_user));// new length of array\n      \n      patientToDoctor[_patient][_user] = pos;\n      d.patient_list.push(_patient);    \n    }\n  }\n\n  function addHospital(address _id, string memory _name, string memory _location) public onlyOwner(){\n    hospital memory h = hospitals[_id];\n    require(!(h.id > address(0x0)));\n    hospitals[_id] = hospital({id:_id, name:_name, location:_location});\n  }\n  \n  function addDoctorAdhaarInfo(address _doc, string memory _name, string memory _DOB, uint24 _pincode, uint64 _adhaar_number) public {\n    adhaar memory a = doctor_adhaar_info[_doc];\n    require(a.adhaar_number == 0);\n    doctor_adhaar_info[_doc] = adhaar({id:_doc, pincode: _pincode, name: _name, DOB: _DOB, adhaar_number: _adhaar_number});\n  }\n\n  function addPatientAdhaarInfo(address _pat, string memory _name, string memory _DOB, uint24 _pincode, uint64 _adhaar_number) public {\n    adhaar memory a = patient_adhaar_info[_pat];\n    require(a.adhaar_number == 0);\n    patient_adhaar_info[_pat] = adhaar({id:_pat, pincode: _pincode, name: _name, DOB: _DOB, adhaar_number: _adhaar_number});\n  }\n  \n}",
  "sourcePath": "D:\\Downloads\\EHR-using-Blockchain-master\\contracts\\optimized_healthCare.sol",
  "compiler": {
    "name": "solc",
    "version": "0.5.17+commit.d19bba13.Emscripten.clang"
  },
  "schemaVersion": "3.0.23",
  "updatedAt": "2023-03-23T17:50:05.065Z",
  "networkType": "ethereum",
  "devdoc": {
    "methods": {}
  },
  "userdoc": {
    "methods": {}
  }
}